:020000040800F2
:10000000180B0020B5010008992E0008F52B0008F8
:100010006D2E00087102000829340008000000005D
:10002000000000000000000000000000ED2F0008AC
:10003000B506000800000000E92F0008F12F0008B5
:10004000CF010008CF010008CF010008CF01000850
:10005000CF010008CF010008CF010008CF01000840
:10006000CF010008CF010008CF010008CF01000830
:10007000CF0100089D060008A9060008CF0100086E
:10008000CF010008CF010008CF010008CF01000810
:100090001D34000875020008CF010008CF010008D8
:1000A000CF010008CF010008CF010008CF010008F0
:1000B000F92F0008CF01000805300008CF01000823
:1000C000CF010008CF010008CF010008CF010008D0
:1000D000CF01000811340008CF010008CF0100084B
:1000E000CF010008CF010008CF01000800F002F89E
:1000F00000F050F814A696E8000CB244B344DA4578
:1001000001D100F047F8BAE80F000FA696E83000DA
:10011000A5EB040504EB0607AAEB0704A7F101070A
:100120004FEA15154FEA3414A4F10104AC4201D38F
:1001300000F030F813F0010F18BFFB1A43F0010371
:1001400000F001F8DBE718472842000048420000B1
:10015000103A24BF78C878C1FAD8520724BF30C8F3
:1001600030C144BF04680C60704700007047000055
:100170000023002400250026103A28BF78C1FBD8B0
:10018000520728BF30C148BF0B6070471FB51FBD65
:1001900010B510BD00F031F81146FFF7F7FF03F07E
:1001A00045F900F04FF803B4FFF7F2FF03BC00F08D
:1001B00057F800000948804709480047FEE7FEE776
:1001C000FEE7FEE7FEE7FEE7FEE7FEE7FEE7FEE707
:1001D00004480549054A064B70470000F52F000802
:1001E000ED00000818050020180B0020180700205B
:1001F00018070020704770477047754600F02CF8CC
:10020000AE4605006946534620F00700854618B003
:1002100020B5FFF7DDFFBDE820404FF000064FF0AE
:1002200000074FF000084FF0000BAC46ACE8C009E7
:10023000ACE8C009ACE8C009ACE8C00921F007018E
:100240008D46704710B50446AFF300802046BDE8E8
:100250001040FFF7A8BF00000048704710000020C2
:1002600001491820ABBEFEE72600020070470000DF
:10027000FEE7000040F2E420C2F2000000F09CBB68
:1002800010B58AB004460020CDE905000121CDE972
:100290000000CDE9020004900E20CDE9071109907D
:1002A0006946204600F078FA002818BF00F004FAEA
:1002B000204600F0BDFD002818BF00F0FDF92046E3
:1002C000022100F0FFF9002818BF00F0F5F92046E0
:1002D000012100F0F7F9002818BF00F0EDF90AB08D
:1002E00010BD000010B58AB00020DDE90CEC0190D3
:1002F000CDE90600CDE90410100A8DF80800180AAF
:100300008DF80A004FEA1E208DF80C004FEA1C20E1
:100310008DF80E0040F2E42008248DF809208DF8B5
:100320000B30C2F2000004A902AA01AB08948DF8B8
:100330000DE08DF80FC000F0DDF90AB010BD00002F
:100340002DE9F04F81B040F2B404C2F2000420461F
:1003500002F0A4FD44F2000848F200094CF2000A41
:1003600040F2000B00264CF6CD47C4F20048C4F220
:100370000049C4F2004AC4F2014BC4F22016C3F68D
:10038000CC57002504F18C00C4F88880C4F814917F
:10039000C4F8A0A1C4F82CB2C4E90667256202F033
:1003A0007DFD04F58C70C4F88880C4F81491C4F8FD
:1003B000A0A1C4F82CB2C4E92967C4F8AC5002F07B
:1003C0006DFD04F5D270C4F88880C4F81491C4F8A7
:1003D000A0A1C4F82CB2C4E94C67C4F8385102F0AB
:1003E0005DFDC4F88880C4F81491C4F8A0A1C4F8D5
:1003F0002CB2C4E96F67C4F8C45101B0BDE8F08FF6
:10040000F0B581B040F2FC41C2F20001B1F9040044
:10041000B1F90040B1F90C5003F0CAFD49F60C06E1
:10042000C3F64626314603F043FE40F2A807C2F267
:1004300000073860204603F0BBFD314603F038FE6C
:100440007860284603F0B4FD4FF20921C3F69431D9
:1004500003F02EFEB86001B0F0BD00002DE9F04FB2
:1004600085B040F2A802C2F20002D2E90085946889
:1004700040462946009503F0B3FC03F085FC07468F
:10048000029020460E46019103F07EFC0023C3F645
:10049000D073002203F08CFA3A46334682468B46EC
:1004A00003F052F841F2EF1741F6B839C4F23917A8
:1004B000C4F223093A464B4603F07AFA43F2333347
:1004C000C3F6B3734FF0333203F0E6F80026C4F2FC
:1004D00033060022334603F06BFA03F039FA049036
:1004E00028464146454603F0AFFE03F04DFC024668
:1004F0000B465046594603F027F83A464B46B84655
:1005000003F056FA43F233334FF03332C3F6B3738A
:100510001F4603F0C1F80022334603F049FA03F006
:1005200017FADDE9013203905046594603F03EFBCD
:1005300042464B4603F03CFA4FF033323B4603F061
:10054000ABF80022334603F033FA03F001FA0099C6
:100550000446284603F078FE03F016FC02460B46DC
:100560005046594602F0F0FF42464B4603F020FA4F
:100570004FF033323B4603F08FF80022334603F04E
:1005800017FA03F0E5F90546049803F011FD40F26F
:10059000B406C2F20006B062039803F009FDC6F883
:1005A000B400204603F004FDC6F84001284603F0DD
:1005B000FFFCC6F8CC0105B0BDE8F08F70B502783D
:1005C000417840F2FC4C61F30A22C2F2000CACF814
:1005D000002041788478CB0864F34A13ACF80430E7
:1005E000C47881780579A40044EA911165F38A21E1
:1005F000ACF80810057944794FEA550E067C64F38F
:10060000CA1E447C002A64F30A26ACF80CE0ACF85D
:10061000106018BF002B17D0B1B1BEF1000F13D07E
:10062000A2F58062A3F58063A1F58061AEF5806ECE
:10063000A6F58064ACF80020ACF80430ACF80810E3
:10064000ACF80CE0ACF810400932122A9CBF002232
:10065000ACF8002003F10902122A01F109019CBF44
:100660000022ACF8042012299CBF0021ACF808102D
:100670000EF1090112299CBF0021ACF80C109CF866
:1006800013108CF812104179C1F301118CF813107A
:10069000407980098CF8150070BD000040F25030A0
:1006A000C2F2000000F080BC40F20C30C2F2000048
:1006B00000F07ABC70470000EFF3108072B600BF04
:1006C000FEE7000090F82020013A012A08D80068CF
:1006D00000F114020020136819431160704700BF35
:1006E00000F1240201204FF48021136819431160A6
:1006F0007047000010B590F820E0D0F800C0AEF1CF
:10070000010EBEF1010FDCF808E011D81EF0E05F29
:1007100018D0CEF301640120A04018608B68DBB1D3
:10072000D1F804E0C86840EACE0040EA030E17E0C2
:1007300000F1240301204FF480211A68114319604D
:1007400010BD00BF00F1240301204FF400111A680E
:100750001143196010BD00BF0868CB6843EA405ED2
:100760000CF5C07000EB0413240140F804E00C69A0
:10077000184640F8044F097D012903D1016841F46E
:100780008071016050680121D86010689860002075
:100790001A681143196010BD026890F82030013BBF
:1007A000012B29D8B0B5D2F80002012340F0010096
:1007B000C2F80002D1F814E0CC690EF01F0003FA71
:1007C00000F0D2F81C326FEA000C8343012CC2F80F
:1007D0001C3217D06CBBD2F80C3203EA0C03C2F8FF
:1007E0000C32CB688C8844EA034302EBCE04C4F895
:1007F00040320B4615E000BF416A41F4802141625E
:1008000001207047D2F80C320343C2F80C320B6857
:100810008C8844EA034302EBCE04C4F8403201F171
:100820000C038D681B8802EBCE0443EA0543C4F831
:100830004432D2F804328C6943EA0005D1F810E062
:10084000096A002C08BF03EA0C05C2F80452D2F86A
:100850001432BEF1000F43EA000408BF03EA0C049F
:100860000129C2F8144204D1D2F81C120843C2F87C
:100870001C02D2F8000220F00100C2F800020020A1
:10088000B0BD000070470000B0B590F82040013CBA
:10089000012C7DD8D0F800C000290CBFDCF80C403A
:1008A000DCF81040A4077DD00CF5D8754FEA011C88
:1008B00055F80C4014F00404946055F80CE005EB76
:1008C000011C19BF4FEADE0555604FEA5E55156001
:1008D000DCF80050E64605F00205D5605EF8044FEE
:1008E00024075ABFDEF8004004F00F040824146106
:1008F000DEF800400029C4F307249461DEF80050BC
:100900004FEA15455561DCF808201A70026802EBC1
:100910000112D2F8B8214FEA12225A70026802EB93
:100920000112D2F8B8214FEA12429A70026802EB23
:100930000112D2F8B8214FEA1262DA70026802EBB3
:100940000112D2F8BC211A71026802EB0112D2F82E
:10095000BC214FEA12225A71026802EB0112D2F84E
:10096000BC214FEA12429A71026802EB0112D2F8DE
:10097000BC214FEA1262DA7100680CBF00F10C0171
:1009800000F11001002020220B681A430A60B0BD5C
:1009900000F1240101204FF480220B681A430A6001
:1009A000B0BD00BF00F1240101204FF400120B681C
:1009B0001A430A60B0BD00002DE9F04F81B0044633
:1009C00000684669D0F804908768D0F80CB0D0F879
:1009D00010A0D0F81880F10704D1002530071DD4ED
:1009E00024E000BFF90710D00121BA07816009D4C3
:1009F000780700F1AF80380700F1B680204600F09C
:100A000045FA02E0204600F043FA0025F80500F11F
:100A10008780F80300F1B180300707D51BF0100084
:100A200004D0206845F400751021C160700708D516
:100A30001BF0080005D020680821C160204600F0A6
:100A4000B5F9B00706D52068C068800702D02046F7
:100A500000F0AEF9700607D51AF0100004D0206837
:100A600045F4806510210161B00608D51AF0080030
:100A700005D0206808210161204600F0D3F9F00676
:100A800006D520680069800702D0204600F0CCF926
:100A9000B00308D519F0100005D02068102141607E
:100AA000204600F0C3F9F00308D519F0080005D07E
:100AB000206808214160204600F0F4F9300440F13C
:100AC0009B805FEA497040F1948006F4807008EAE8
:100AD000102028435FEA8871014648BF41F00201B7
:100AE000B20558BF01465FEA48700D4648BF45F061
:100AF0000405700558BF0D46300540F17A8018F0A6
:100B0000700000F076801038000905286CD8DFE806
:100B100000F003655D61596945F0080564E000BFB8
:100B200020684FF48071BA0581600BD4780515D424
:100B300038051DD4204600F0ADF9F8037FF56CAF01
:100B40001BE000BF204600F0A7F9F8037FF564AF73
:100B500013E000BF4FF4006558E700BF05F50055EE
:100B6000F8037FF559AF08E04FF480554EE700BF1A
:100B700005F58045F8037FF54FAF20684FF48031CD
:100B8000BA0381600AD4780310D4380314D4204601
:100B900000F084F930073FF541AF47E7204600F009
:100BA0007FF930073FF53AAF40E700BF05F5004554
:100BB00030073FF533AF39E705F5803530073FF5AE
:100BC0002DAF33E745F080050EE000BF45F020056E
:100BD0000AE000BF45F0400506E000BF45F0100503
:100BE00002E000BF45F480752068816921F0700142
:100BF000816120680421416055B1606A40EA0501C5
:100C00002046616201B0BDE8F04FFFF73BBE00BF78
:100C100001B0BDE8F08F0000002804BF012070473C
:100C2000B0B5044690F8200010B9204600F06EF8E8
:100C30002068016841F00101016000F01FFC0546D9
:100C400020684168C90705D100F018FC401B0B283B
:100C5000F6D310E0016821F00201016000F00EFC03
:100C6000054600BF2068416889070DD500F006FCE5
:100C7000401B0B28F6D3606A052140F40030606207
:100C8000012084F82010B0BD217E0268012922F0E5
:100C9000800208BF80320260617E0268012922F072
:100CA000400208BF40320260A17E0268012922F0A2
:100CB000200208BF20320260E17E0268012922F092
:100CC000100218BF10320260217F0268012922F051
:100CD000080208BF08320260617F0268012922F021
:100CE000040208BF04320260D4E901C2D4E903352A
:100CF00061691A432A431143ACF101021143C161F6
:100D000000200121606284F82010B0BDB0B586B02B
:100D100040F60004C4F201040068A4F52442002156
:100D200090420591CDE90311029101D006B0B0BD0A
:100D300041F21800C4F20200426802AD42F00072B3
:100D40004260426802F000720192019A026842F029
:100D500004020260006800F00400019001984FF462
:100D60000060CDE9020104912046294600F07EFA98
:100D70004FF48050029002200390032005902046FB
:100D8000294600F073FA14200321002200F0F6FB3C
:100D9000142000F0E1FB15200021002200F0EEFB02
:100DA000152000F0D9FB06B0B0BD00007047000070
:100DB000B0B540F27004C2F2000404F10802002150
:100DC00023460546FFF760FD286846F20041C4F25D
:100DD0000001884210D1A068A0F2012003280BD89E
:100DE00044F23431C0F6000151F8200040F27001A5
:100DF000C2F2000102F03CF840F2B404C2F2000476
:100E0000204602F059F804F18C0002F055F804F580
:100E10008C7002F051F804F5D270BDE8B04002F0D9
:100E20004BB800007047000070470000704700009A
:100E3000B0B5044690F8200001281DD1022084F8A6
:100E400020002068016821F00101016000F016FB1C
:100E5000054600BF20684068C00713D000F00EFBB5
:100E6000401B0B28F6D3606A40F400306062052016
:100E700084F820000120B0BD606A40F40020606268
:100E80000120B0BD00206062B0BD000070470000CE
:100E90007047000070470000704700007047000076
:100EA0007047000070470000014690F821000228BA
:100EB00016D10868D1E90FC3026822F00E02026061
:100EC000026822F001020260012000FA03F2CCF86D
:100ED000042081F821000020002281F820207047A2
:100EE000042088630120002281F820207047000040
:100EF00090F82110022923D1026840F2040C1168F5
:100F0000C4F2020C21F00E01116013682F21C4F20B
:100F100002018A4223F00103136015DD3023C4F27D
:100F200002039A421CD04423C4F202039A421BD00B
:100F30005823C4F202039A421CD14FF4803321E0BB
:100F400004218163012070470823C4F202039A42FE
:100F50000ED01C23C4F202039A420BD1102311E0DD
:100F60004FF480730EE000BF4FF480530AE000BFDF
:100F7000012307E00CF168014FF080738A4208BF3B
:100F80004FF480130121CCF8003080F82110416B20
:100F90000022002980F8202004BF0020704780B57F
:100FA0008847002080BD000010B5D0E90FCE016851
:100FB000DCF800300A6823FA0EF35C072AD512F039
:100FC000040427D00A68920603D40A6822F00402B7
:100FD0000A602F22C4F20202914240F20402C4F2DB
:100FE00002025BDD3023C4F20203994272D0442333
:100FF000C4F20203994273D05823C4F20203994207
:1010000040F07A804FF480231360C16A002940F0D9
:1010100098806FE09C0727D512F0020424D00A685C
:10102000920606D40A6822F00A020A60012280F8B9
:1010300021202F22C4F20202914240F20402C4F2A3
:1010400002023BDD3023C4F20203994260D0442304
:10105000C4F2020399425FD05823C4F202039942BA
:1010600060D14FF4003365E01B0743D512F008024E
:1010700008BF10BD0A6822F00E020A60012101FAC1
:101080000EF2CCF80420816380F82110016B00225D
:10109000002980F8202054D12CE000BF0823C4F29E
:1010A0000203994222D01C23C4F20203994223D1A5
:1010B00040231360C16A002943D11BE00823C4F216
:1010C000020399422CD01C23C4F20203994229D175
:1010D00020232FE04FF480631360C16A89BB09E0CD
:1010E0004FF480431360C16A59BB03E004231360CB
:1010F000C16A31BB10BD00BF02F168044FF08063CC
:10110000A14208BF4FF480031360C16AC9B9F1E777
:101110004FF400730EE000BF4FF400530AE000BF2D
:10112000022307E002F168044FF00073A14208BFF8
:101130004FF400131360816A0022002980F82020F8
:10114000D8D0BDE810400847014600284FF0010004
:1011500008BF70472DE9F043D1F800C04FF6F8738F
:10116000CBF6FD734CF6CD426344CCF6CC42A3FBE8
:1011700002236FF0030202EA93020023C4F2020387
:1011800001F10C08C1E90F320222D1E9019E98E871
:10119000F00181F82120DCF8002043F6F0739A4337
:1011A00042EA090242EA0E0222432A4332433A4308
:1011B00042EA0802CCF8002000228A6381F821006C
:1011C00081F820200020BDE8F043704790F820C04F
:1011D000BCF1010F04BF02207047F0B54FF0010EC3
:1011E00080F820E090F821C0BCF1010F26D14FF02B
:1011F000020C80F821C04FF0000CC0F838C0D0E9D4
:1012000000C4C56AC66BDCF80070102C27F001071B
:10121000CCF80070006C0EFA00F070600846CCF854
:10122000043004BF10460A46CCF80800CCF80C2065
:10123000DCF8000045B140F00E000DE0002180F820
:1012400020100220F0BD00BF20F00400CCF8000008
:10125000DCF8000040F00A00CCF80000DCF80000E8
:1012600040F00100CCF800000020F0BD2DE9F04F67
:1012700082B00E68002E00F0FD8041F20042C4F200
:101280000102042340F2004E904208BF03234FF6B0
:10129000FF7CC4F2010E009300240123C1F2100C64
:1012A0004FF0000A4FF000094BE000BF41F200028E
:1012B000C4F20102009F904208BF022704F00C0311
:1012C0000F229A402BEA020207FA03F34FEA9A052B
:1012D0001A4346F825204E6840F20C45F202DEF82B
:1012E000082054BF22EA080242EA0802C4F20105BB
:1012F000CEF808202A68B30254BF22EA080242EA64
:1013000008022A60B303DEF8042054BF22EA080270
:1013100042EA0802F303CEF80420DEF800204FF082
:10132000010354BF22EA080242EA0802CEF8002074
:101330000E680AF1010A36FA0AF204F1040400F018
:10134000998003FA0AFB16EA0B08F1D04E6866454D
:1013500012DC122E56D8DFE806F0350B4D495555F4
:10136000555555555555555555555545510000BF81
:10137000D1F80C9046E000BF4FF6FF72C1F2210297
:1013800096420FDC0022C1F2110296421AD00022CE
:10139000C1F21202964215D00022C1F221029642F9
:1013A00010D02FE00022C1F2220296420AD0002281
:1013B000C1F23102964205D00022C1F232029642B9
:1013C00020D100BF8A684AB1012A14BFC0F814B006
:1013D000C0F810B04FF0080914E000BF4FF0040946
:1013E00010E000BFCA6802F104090BE04FF00009E9
:1013F00008E000BFCA6802F1080903E0CA6802F108
:101400000C0900BF02462646B8F5807F24BF04328F
:10141000203E17680F25B54027EA050509FA06F6AC
:1014200035431560CA79D2067FF582AF41F21803C1
:10143000C4F202031A68AEF57E7642F001021A6029
:101440001A6802F001020192019A2AF0030256F88A
:1014500002B040F60002C4F20102904208D040F609
:101460000042C4F2010290427FF420AF012725E739
:10147000002723E702B0BDE8F08F000040F21450CF
:10148000C2F200000068704740F2000040F21451C0
:10149000C2F20000C2F2000100780A68104408603D
:1014A0007047000080B542F20000C4F202000168FB
:1014B00041F010010160032000F08CF80F2000F0D3
:1014C00005F800F027F8002080BD000070B540F25C
:1014D0000006C2F2000640F20C013278C2F20001AE
:1014E0004FF47A730968B3FBF2F20446B1FBF2F1F0
:1014F000084600F085FB0F2C4FF0010508D838B9DD
:101500004FF0FF3021460022002500F037F87460CC
:10151000284670BD82B041F21800C4F20200016892
:10152000022241F001010160016801F00101019115
:101530000199416841F080514160406800F080505D
:10154000009000980420C4F20100016862F31A615F
:10155000016002B070470000002848BF704700F0EB
:101560001F01012202FA01F11C2202EAD0004EF210
:101570000012CEF2000281507047000010B54EF606
:101580000C5CCEF2000CDCF80030C3F3022E8EF0BF
:101590000704042C28BF0424BEF103034FF0FF3ED0
:1015A0000EFA04F438BF0023A14399400EFA03F366
:1015B0009A43114300F00F0200F160430901043A1D
:1015C00003F564436244002848BF02F10C0319701C
:1015D00010BD00004EF60C51CEF200010A684FF625
:1015E000FF031A4060F30A2242F0806040F0FD7071
:1015F00008607047002804BF012070472DE9F043C0
:1016000081B042F20008C4F202080446D8F8000093
:101610000D4600F0070081420CD9D8F8000020F0F8
:1016200007002843C8F80000D8F8000000F00700C1
:10163000A8426CD1206841F204098107C4F2020972
:1016400017D5410705D5D9F8001041F4E061C9F874
:101650000010010705D5D9F8001041F46051C9F810
:101660000010D9F80010A26821F0F0011143C9F868
:101670000010C00742D1D8F8000000F007008542F2
:101680000CD2D8F8000020F007002843C8F800006A
:10169000D8F8000000F00700A84238D120684107C0
:1016A00007D5D9F80010E26821F4E0611143C9F8C8
:1016B0000010000708D5D9F80000216920F4605017
:1016C00040EAC100C9F80000D9F8002002F00C007F
:1016D000082841F20020C0F27A004DD144F25E3376
:1016E000C2F38341C0F60003595CD20338D440F6FC
:1016F0000010C0F23D0048433EE000BF606859F86A
:10170000041C022808D0012826D1890306D4012010
:1017100001B0BDE8F08300BF8901F8D5D9F8001009
:1017200021F003010843C9F80000FFF7A7FE0646B1
:1017300041F28837D9F80000616800F00C00B0EB86
:10174000810F98D0FFF79AFE801BB842F2D9032090
:1017500001B0BDE8F08300BF8907D8D5DEE700BF40
:10176000D9F8002044F25C33C2F34042C0F60003D3
:101770009A5C4843B0FBF2F0D9F8001044F24432CE
:10178000C1F30311C0F60002515C40F20C0220FAD2
:1017900001F140F20400C2F200000068C2F200024F
:1017A0001160FFF793FE002001B0BDE8F083000058
:1017B00040F20C0041F20401C2F20000C4F2020146
:1017C0000068096844F25432C1F30221C0F60002F5
:1017D000515CC8407047000040F20C0041F2040127
:1017E000C2F20000C4F202010068096844F25432F7
:1017F000C1F3C221C0F60002515CC840704700002E
:10180000002804BF012070472DE9F04182B0044652
:10181000007841F20006C007C4F202060CD07068DE
:1018200000F00C00042840F081803068800303D56C
:101830006068002800F04681207880071BD570681A
:1018400010F00C0F09D0706800F00C00082840F070
:1018500087807068C00300F183803068800703D5FB
:101860002069012840F02E813068616920F0F8007D
:1018700040EAC10030602078000713D42078400788
:101880002CD4E569002D00F01881706800F00C0080
:10189000082840F0A780012D40F00481012002B00B
:1018A000BDE8F081A069002800F084800020C4F227
:1018B00042200121C0F88014FFF7E0FD054600BF7B
:1018C000706A800700F1B280FFF7D8FD401B022844
:1018D000F6D9032002B0BDE8F08100BFF0695FEAED
:1018E000C00808D4F06940F08050F061F06900F061
:1018F00080500090009847F20007C4F20007386853
:10190000C00549D4386840F480703860FFF7B6FDF0
:10191000054600BF3868C0053ED4FFF7AFFD401B49
:101920006428F7D9032002B0BDE8F081706800F0A8
:101930000C00082803D17068C0033FF576AF6168DA
:101940003068002900F00C81B1F5A02F00F0008173
:10195000B1F5803F40F01A8140F480301CE100BFB7
:101960002069002840F20000C4F2422000F0888084
:1019700001210160FFF782FD054600BF3068800746
:101980003FF572AFFFF77AFD401B0228F6D903201E
:1019900002B0BDE8F08100BFE168306A002900F0C4
:1019A0009D80052900F09280012940F0AF8040F031
:1019B0000100B1E00020C4F242200021C0F88014F0
:1019C000FFF75CFD054600BF706A80077FF556AFE4
:1019D000FFF754FD401B0228F6D9032002B0BDE8F2
:1019E000F08100BF0027C4F2422700203866FFF7CD
:1019F00045FD022D05460DD13068800140F1DE80A5
:101A0000FFF73CFD401B02284FF00300F4D902B061
:101A1000BDE8F081306880014FD5FFF72FFD401BF6
:101A200002284FF00300F5D9F1E700BF40F20C00A7
:101A3000C2F20000006844F6D351C1F26201A0FB7B
:101A40000101480A019000BF00BF0198411E002813
:101A500001913FF413AF00BF0198411E002801918E
:101A60003FF40CAF00BF0198411E002801913FF4E4
:101A700005AF00BF0198411E00280191E4D1FDE6A9
:101A800000210160FFF7FAFC054600BF30688007BF
:101A90007FF5F1AEFFF7F2FC401B02284FF0030088
:101AA000F4D9B4E77068216A00F480328A4209D11F
:101AB000616A00F47010884204D1002002B0BDE8D1
:101AC000F08100BF012002B0BDE8F08140F00400C9
:101AD0003062306A40F001001EE000BF20F00100DB
:101AE0003062306A20F004003062FFF7C7FC054620
:101AF00041F28837306A800720D5FFF7BFFC401BD2
:101B0000B8424FF00300F5D981E700BF20F0010093
:101B10003062306A20F004003062FFF7AFFC054607
:101B200041F28837306A800708D4FFF7A7FC401BD2
:101B3000B842F7D9032002B0BDE8F081B8F1000F38
:101B40003FF59FAEF06920F08050F06199E600BF4C
:101B500040F480203060306840F480301CE000BFEA
:101B600020F480303060306820F480203060FFF74F
:101B700085FC0546306880037FF55EAEFFF77EFC8E
:101B8000401B64284FF00300F4D940E720F4803074
:101B90003060306820F480203060FFF76FFC05462D
:101BA000306880033FF548AEFFF768FC401B6428AF
:101BB000F6D9032002B0BDE8F08100BF206AB0F57D
:101BC000803F05D17168A26821F400311143716032
:101BD0007168626A21F47411114308437060012036
:101BE0003866FFF74BFC0446306880013FF565AF6F
:101BF000FFF744FC001B02284FF00300F4D906E76E
:101C0000411E0020B0EB116F1CBF012070474EF247
:101C10001002CEF2000251604EF62351CEF20001C6
:101C2000F0230B700721906011607047704700002F
:101C30007047000090F83C20012A4FF0020236D095
:101C400010B580F83D200268D2F804E0D2F808C050
:101C50000C682EF07003234340F2FF74C4F20004BA
:101C6000A24253600ADCB2F1804F13D040F200432D
:101C7000C4F200039A420DD011E000BF42F60043C7
:101C8000C4F201039A4205D040F60003C4F20003F7
:101C90009A4204D149682CF08003194391600121D4
:101CA000002280F83D1080F83C20BDE8104010462E
:101CB00070470000002804BF0120704710B590F85D
:101CC0003D1031B9002180F83C10044600F070F856
:101CD0002046022180F83D10016840F2FF740B6835
:101CE000C4F2000442F6004CA142C4F2010C15DC1F
:101CF000B1F1804F1AD040F20042C4F2000291428A
:101D000014D0A14218DCB1F1804F1DD040F2004246
:101D1000C4F20002914217D01AE000BF614505D01D
:101D200040F60002C4F200029142EAD1826823F038
:101D300070031343A142E6DD614505D040F6000281
:101D4000C4F20002914203D1026923F440731343A9
:101D5000846923F08002D0F804E0C368224361451F
:101D60000A60CB62C1F828E002D14269CCF8302089
:101D700001224A610B69DB0703D00B6923F00103E1
:101D80000B6180F8462080F83E2080F83F2080F8E4
:101D9000402080F8412080F8422080F8432080F8DD
:101DA000442080F8452080F83D20002010BD000030
:101DB00010B582B0006840F60001C4F2000188420C
:101DC00014D0B0F1804F2BD141F21C00C4F20200BC
:101DD0000168002241F0010101600068012100F06A
:101DE0000100019001981C201C2410E041F21C000D
:101DF000C4F202000168002241F0040101600068A1
:101E0000022100F00400009000981E201E24FFF71D
:101E1000B5FB204602B0BDE81040FFF79DBB00BFF8
:101E200002B010BD90F83D1001291CBF0120704781
:101E3000022180F83D10006840F2FF72C168C4F2D0
:101E40000002904241F00101C16009DCB0F1804F15
:101E500012D040F20041C4F2000188420CD012E0DE
:101E600042F60041C4F20101884205D040F600016B
:101E7000C4F20001884206D1816801F007010629F9
:101E800004BF00207047016841F00101016000209B
:101E90007047000090F83C20012A4FF002026CD0FD
:101EA00080B580F83D20D0F800C04FF67772DCF89E
:101EB000083023EA0202CCF808200B684F2B29DCFB
:101EC0001F2B45DD202B46D0302B44D0402B40F03B
:101ED000AF80D1F804E0C968DCF82030DCF82020BD
:101EE00022F00102CCF82020DCF8182022F0F002C9
:101EF00042EA011123F00A0242EA0E02CCF818105D
:101F0000CCF82020DCF8081041F0470121F0300126
:101F100028E000BF6F2B33DDB3F5005F74D0B3F55D
:101F2000805F21D0702B40F08380D1E901E3C96844
:101F3000DCF8082043EA0E0322F47F4243EA012141
:101F40001143CCF80810DCF8081041F0770109E0E3
:101F50000BB1102B6CD1DCF8081021F07001194383
:101F600041F00701CCF808100022012180F83D1053
:101F7000002180F83C10BDE880401046704700BF4B
:101F8000502B21D0602B53D1D1F804E0C968DCF884
:101F90002030DCF8202022F01002CCF82020DCF8E1
:101FA000182022F4704242EA013123F0A00242EAF2
:101FB0000E12CCF81810CCF82020DCF8081041F0F4
:101FC000670121F01001CDE7D1F804E0C968DCF821
:101FD0002030DCF8202022F00102CCF82020DCF8B0
:101FE000182022F0F00242EA011123F00A0242EA2C
:101FF0000E02CCF81810CCF82020DCF8081041F0C4
:10200000570121F02001ADE7D1E901E3C968DCF80F
:10201000082043EA0E0322F47F4243EA01211143E0
:10202000CCF80810DCF8081041F480419AE700BFB2
:1020300001229AE77047000070B504460068C56841
:102040000669B10716D515F0020113D06FF0020131
:102050000161012121778069800703D02046FFF7C5
:10206000E9FF05E0204600F08FF8204600F08EF8EA
:1020700000202077700719D515F0040016D02068CD
:102080006FF00401016102212177806910F4407F23
:1020900004D02046FFF7CEFF06E000BF204600F048
:1020A00073F8204600F072F800202077300717D52B
:1020B00015F0080014D020686FF0080101610421B8
:1020C0002177C069800703D02046FFF7B3FF05E002
:1020D000204600F059F8204600F058F800202077FC
:1020E000F00619D515F0100016D020686FF0100119
:1020F000016108212177C06910F4407F04D0204697
:10210000FFF798FF06E000BF204600F03DF82046AC
:1021100000F03CF800202077F00718BF15F0010010
:1021200002D1300609D412E020686FF0010101618C
:10213000204600F02DF8300609D515F0800006D0B5
:1021400020686FF0800101612046FFF76FFD700687
:1021500009D515F0400006D020686FF040010161FC
:10216000204600F049F8B00658BF70BD15F02000B9
:1021700008D021686FF0200220460A61BDE8704057
:10218000FFF756BD70BD00007047000070470000AB
:102190000068B0F1804F18BF7047F0B583B0FEF70C
:1021A0002FF9FEF75BF940F2B401C2F20001C86CEE
:1021B000D1F8D840D1F86451D1F8F06101F0DCFEDB
:1021C0000746204601F0D8FE0446284601F0D4FE1A
:1021D0000546304601F0D0FE064640F2E420C2F249
:1021E00000004FF400713A462346CDE90056FEF751
:1021F00079F803B0F0BD00007047000070470000A0
:1022000070470000B0B582B001680A68CC684B69BD
:1022100002F02F05202D04F0200505D125B102B0D4
:10222000BDE8B04001F074B85FEA027C1EBF03F065
:10223000010E04F4907313EB0E0341D1036BD5062A
:1022400018D5012B16D114F0100313D000220192DF
:102250000A6801924A680192019A496949064BD479
:10226000818DC28DC38D002B18BF914240F0F48147
:1022700002B0B0BD13062DD514F080032AD090F81B
:102280004120212AF4D18268B2F5805F03D102692E
:10229000002A00F06782026A531C036212784A60C7
:1022A000C28C013A1304C284E2D1C86820F08000D5
:1022B000C860C86840F04000C86002B0B0BD00BF50
:1022C000D30718BF14F4807340F0D080530700F197
:1022D000D380D8E05206CBD514F04002C8D0CA68EB
:1022E00022F04002CA60202180F8411002B0BDE80F
:1022F000B04000F07DBC00BFC16B0A68526893B269
:10230000002BB5D0858DAB42B2D2C2858969202918
:1023100000F0A180016851E8031F026821F4807178
:1023200042E80313DBB1016851E8031F026821F49E
:10233000807142E8031393B1016851E8031F0268FA
:1023400021F4807142E803134BB1016851E8031F87
:10235000026821F4807142E80313002BDAD101688E
:1023600051E8051F026821F0010142E80513C3B3DB
:10237000016851E8051F026821F0010142E80513D8
:102380007BB3016851E8051F026821F0010142E8B2
:10239000051333B3016851E8051F026821F00101FC
:1023A00042E80513002BDAD11BE000BF016851E8B9
:1023B000051F026821F0400142E80513DBB1016806
:1023C00051E8051F026821F0400142E8051393B16E
:1023D000016851E8051F026821F0400142E8051339
:1023E0004BB1016851E8051F026821F0400142E845
:1023F0000513002BDAD1202180F84210002101635F
:10240000016851E8031F026821F0100142E803133C
:10241000DBB1016851E8031F026821F0100142E8B6
:10242000031393B1016851E8031F026821F0100102
:1024300042E803134BB1016851E8031F026821F021
:10244000100142E80313002BDAD1C16B04460846A1
:10245000FEF72AFD204602214163818DC28D891A33
:1024600089B202B0BDE8B040FFF7C8BE436C43F08C
:1024700001034364530706D5BEF1000F03D0436C3C
:1024800043F002034364930706D5BEF1000F03D067
:10249000436C43F004034364BCF1000F06D55EEACD
:1024A000050303D0436C43F008034364436C002BE3
:1024B0003FF4DEAE920605D525B1044600F028FFB4
:1024C000216820464969426C01F0400102F008028F
:1024D000891800F0B98000BF016851E8031F026845
:1024E00021F4907142E80313BBB3016851E8031F64
:1024F000026821F4907142E8031373B3016851E854
:10250000031F026821F4907142E803132BB30168A2
:1025100051E8031F026821F4907142E80313002B75
:10252000DAD11AE0016851E8051F026821F00101C3
:1025300042E80513DBB1016851E8051F026821F08C
:10254000010142E8051393B1016851E8051F0268D3
:1025500021F0010142E805134BB1016851E8051F64
:10256000026821F0010142E80513002BDAD1016B6A
:10257000012924D1016851E8031F026821F01001EC
:1025800042E80313DBB1016851E8031F026821F040
:10259000100142E8031393B1016851E8031F026878
:1025A00021F0100142E803134BB1016851E8031F09
:1025B000026821F0100142E80313002BDAD1202138
:1025C00080F842100021016301684969490640F121
:1025D000C380016851E8051F026821F0400142E80C
:1025E0000513DBB1016851E8051F026821F04001C5
:1025F00042E8051393B1016851E8051F026821F014
:10260000400142E805134BB1016851E8051F02681B
:1026100021F0400142E80513002BDAD1C16B0029FB
:1026200000F09A8043F21102C0F600020446084608
:102630004A63FEF75DFC00283FF41AAEE06B416B85
:1026400002B0BDE8B04008470446FFF7D9FD0020BE
:10265000606402B0B0BD00BF891A00BF026852E8D2
:10266000032F036822F4907243E80325BDB3026888
:1026700052E8032F036822F4907243E8032575B3F0
:10268000026852E8032F036822F4907243E803259E
:102690002DB3026852E8032F036822F4907243E8D6
:1026A0000325002DDAD11AE0026852E8052F0368ED
:1026B00022F0010243E80525DDB1026852E8052F4A
:1026C000036822F0010243E8052595B1026852E84B
:1026D000052F036822F0010243E805254DB1026889
:1026E00052E8052F036822F0010243E80525002D7A
:1026F000DAD1202280F8422000220263026852E8E8
:10270000032F036822F0100243E80325DDB10268BD
:1027100052E8032F036822F0100243E8032595B125
:10272000026852E8032F036822F0100243E80325F1
:102730004DB1026852E8032F036822F0100243E80B
:102740000325002DDAD1022289B2426302B0BDE82E
:10275000B040FFF753BD00BF02B0BDE8B040FFF787
:102760004FBD00BF026A32F8023B6FF35F234B603C
:10277000026295E5002804BF0120704710B50446A9
:1027800090F8410028B9002084F84000204600F06D
:1027900063F8242084F841002068D4E90212C36859
:1027A00023F40053C360036923F440531A430261C6
:1027B000D4E904231143C268194341F20C639A43DC
:1027C0001143C1604169A26921F44071114343F68C
:1027D0000002C4F201029042416103D0FEF7E8FF1B
:1027E00002E000BFFEF7F8FFD4E9002319214843B7
:1027F0009900B0FBF1F048F21F5CC5F2EB1CA0FBA6
:102800000C314FF69C734909C0F6FF7301FB0300BE
:10281000322303EB0010A0FB0C03F02000EA53105E
:1028200000EB0110C3F343110844906010692021AC
:1028300020F490401061506920F02A005061D06867
:1028400040F40050D0600020606484F8411084F8A7
:102850004210606310BD0000F0B585B0044600680A
:1028600044F20041C4F20001002688420496CDE9FA
:102870000266019600F0B48044F60001C4F2000143
:1028800088425DD043F60001C4F20101884240F065
:10289000A48041F21800C4F20200016840F600056D
:1028A00041F4804101600168C4F2010501F48041F6
:1028B00000910099016801AE41F0040101600068D7
:1028C000314600F00400009000984FF40070019031
:1028D00002200290032004902846FEF7C7FC4FF424
:1028E00080600190002728463146CDE90277FEF747
:1028F000BDFC3020C4F2020040F20C351430C2F2AC
:102900000005102180224FF4005385E883002846FB
:10291000C5E90327C5E90577EB61FEF715FC00283B
:1029200018BFFDF7C9FE252003210022A5636C62B4
:10293000FEF724FE2520FEF70FFE05B0F0BD00BF18
:1029400041F21800C4F20200416801AE41F4802156
:102950004160416801F4802100910099016841F0D3
:10296000080101600068314600F0080000900098FE
:102970004FF480600190022002900320049040F602
:102980000000C4F2010000F580652846FEF76EFCE9
:102990004FF400600190002728463146CDE90277C8
:1029A000FEF764FC40F250353020C2F20005C4F25C
:1029B000020080214FF40052C5E900072846C5E90E
:1029C0000271C5E90477C5E90672FEF7BDFB002870
:1029D00018BFFDF771FEE5636C6205B0F0BD00BF86
:1029E00041F21800C4F20200416840F6000441F4CC
:1029F000003141604168C4F2010401F400310091EA
:102A00000099016801AD41F00401016000682946A8
:102A100000F0040000900098042001900220029031
:102A2000032004902046FEF721FC0820CDE9010692
:102A3000204629460396FEF719FC05B0F0BD0000BC
:102A400090F84230202B0BD194460A4600294FF0D3
:102A5000010118BFBCF1000F06D10846704700BF46
:102A600002210846704700BF70B582B000252221C0
:102A700005638262A0F82CC0456480F842100168AA
:102A8000C36B43F2991443F2F92E43F21D06C0F6CC
:102A90000004C0F6000EC0F60006C3E90A4EC3E902
:102AA0000C650431044618466346FEF78FFB01951A
:102AB000216820460A6801924968019101992169BB
:102AC00031B300BF016851E8031F026841F480710F
:102AD00042E80313E3B1016851E8031F026841F4BF
:102AE000807142E803139BB1016851E8031F02683B
:102AF00041F4807142E8031353B1016851E8031FA8
:102B0000026841F4807142E80313002BDAD100BF60
:102B1000016851E8051F026841F0010142E8051310
:102B2000BBB3016851E8051F026841F0010142E8AA
:102B3000051373B3016851E8051F026841F00101F4
:102B400042E805132BB3016851E8051F026841F004
:102B5000010142E80513002BDAD11AE0016851E8BF
:102B6000051F026841F0400142E80513DBB101682E
:102B700051E8051F026841F0400142E8051393B196
:102B8000016851E8051F026841F0400142E8051361
:102B90004BB1016851E8051F026841F0400142E86D
:102BA0000513002BDAD1002002B070BD016844F695
:102BB0000002C4F20002914218BF7047B0B540F263
:102BC0009404C2F2000405462046FDF7F7FC2846AF
:102BD00021461222FFF734FF40F20800C2F2000043
:102BE00000210170BDE8B040704700007047000050
:102BF00070470000FEE7000080B540F2E42046F296
:102C00000041C2F20000C4F20001022200234FF092
:102C1000807C4FF4702E80E80E5001214361C0F893
:102C20001730A0F81B104377FDF7F6FF002808BF08
:102C300080BDBDE88040FDF73FBD000080B582B09B
:102C400041F21400C4F202000168002241F00101C7
:102C500001600068002100F00100019001980D2042
:102C6000FEF78CFC0D20FEF777FC0E2000210022E1
:102C7000FEF784FC0E2002B0BDE88040FEF76CBC7D
:102C800083B041F21800C4F20200016841F0200153
:102C90000160016801F0200102910299016841F090
:102CA00004010160016801F00401019101990168CA
:102CB00041F008010160006800F0080000900098F1
:102CC00003B0704780B586B040F294300021C2F264
:102CD00000004FF08042472340F2E73C0591CDE9E8
:102CE0000311CDE90011C0E90023C0E9021C016114
:102CF0008161FEF7DFFF002818BFFDF7DDFC4FF410
:102D00008050029040F29430C2F2000002A9FFF716
:102D1000C1F8002818BFFDF7CFFC40F29430C2F292
:102D200000006946FEF786FF002818BFFDF7C4FCC7
:102D300006B080BD80B586B040F2DC3040F60002BF
:102D40000021C2F20000C4F20002472340F2E73C37
:102D50000591CDE90311CDE90011C0E90023C0E9D7
:102D6000021C01618161FEF7A5FF002818BFFDF775
:102D7000A3FC4FF48050029040F2DC30C2F200001D
:102D800002A9FFF787F8002818BFFDF795FC40F26D
:102D9000DC30C2F200006946FEF74CFF002818BF85
:102DA000FDF78AFC06B080BD80B540F2244043F6B2
:102DB0000001C2F20000C4F2010100234FF0080C30
:102DC0004FF4E13280E80E00C0E90333C0E905C3E7
:102DD000C361FFF7CFFC002808BF80BDBDE880407D
:102DE000FDF76ABC80B540F26C4044F20041C2F28B
:102DF0000000C4F2000148F2A06200234FF0040C6E
:102E0000C0F2010280E80E00C0E90333C0E905C347
:102E1000C361FFF7AFFC002808BF80BDBDE880405C
:102E2000FDF74ABC10B540F2B44044F6000C48F23D
:102E3000A062C2F20000C4F2000CC0F201024FF422
:102E4000805300214FF4806E0C24C0E900C2C0E919
:102E50000231C0E904E4C0E90611FFF78BFC002849
:102E600008BF10BDBDE81040FDF726BCFEE700001E
:102E70000288038A42800A88438212BA120C0280B6
:102E80004A8812BA120C02828A8812BA120C828202
:102E90008979817570470000FEE700000021C16458
:102EA0000161C0E90611C0E908118162C0E90C1195
:102EB000C0E90E11016470472DE9F04F81B004465E
:102EC000866AB0F9100001F073F80146304601F04F
:102ED000BBF90546206330460021002600F0E2FFE2
:102EE00004F11809002808BF666A99E88202D4F83C
:102EF00034B0284601F0DCF80090A0632846314643
:102F000000F06EFF39468246606201F0D1F88046DB
:102F1000E0632846594601F097F900F035FF4AF67C
:102F2000FC1246F24D23CDF2F122C3F6507300F0AD
:102F3000B3FB074648460E4600F026FF02460B4606
:102F40003846314600F034FD00F0CCFA656344F2B7
:102F50000005C4F29C55814620644046294600F095
:102F6000AFFF40B944F20005CCF29C5540462946DB
:102F700000F0ADFF08B9A846E56344F20005C4F2CD
:102F80009C555046294600F09BFF08B165620AE057
:102F900044F20005CCF29C555046294600F097FFBC
:102FA000002808BF65620098414600F019FF4946B5
:102FB00000F016FF0021C4F2FA51054600F080FF30
:102FC000002100281CBF0025C4F2FA55CCF2FA51AA
:102FD000284600F08AFF00281CBF0025CCF2FA55D5
:102FE000E56401B0BDE8F08F704700007047000055
:102FF000FEF74ABA7047000040F29430C2F2000077
:10300000FFF71AB840F2DC30C2F20000FFF714B844
:10301000406A0021C185C184FFF7F2B8406A0168A7
:103020004A6990F84130212B2DD112F080022AD02C
:103030000021C184016851E8031F026821F0C0012A
:1030400042E80313DBB1016851E8031F026821F075
:10305000C00142E8031393B1016851E8031F0268FD
:1030600021F0C00142E803134BB1016851E8031F8E
:10307000026821F0C00142E80313002BDAD12021BD
:1030800080F841100168496990F84220222A40F0F6
:103090007D8011F0400179D00021C185016851E89F
:1030A000031F026821F4907142E80313BBB3016867
:1030B00051E8031F026821F4907142E8031373B3CF
:1030C000016851E8031F026821F4907142E803137C
:1030D0002BB3016851E8031F026821F4907142E8A4
:1030E0000313002BDAD11AE0016851E8051F0268CA
:1030F00021F0010142E80513DBB1016851E8051F29
:10310000026821F0010142E8051393B1016851E81A
:10311000051F026821F0010142E805134BB1016867
:1031200051E8051F026821F0010142E80513002B58
:10313000DAD1016B012924D1016851E8031F02682B
:1031400021F0100142E80313DBB1016851E8031FCD
:10315000026821F0100142E8031393B1016851E8BD
:10316000031F026821F0100142E803134BB101680C
:1031700051E8031F026821F0100142E80313002BFD
:10318000DAD1202180F8421000210163416C41F026
:1031900010014164FFF734B80168406A0968890684
:1031A00000F19F800021C185016851E8031F02687A
:1031B00021F4807142E80313E3B1016851E8031F71
:1031C000026821F4807142E803139BB1016851E861
:1031D000031F026821F4807142E8031353B10168B0
:1031E00051E8031F026821F4807142E80313002BA9
:1031F000DAD100BF016851E8051F026821F0010122
:1032000042E80513BBB3016851E8051F026821F0CD
:10321000010142E8051373B3016851E8051F026814
:1032200021F0010142E805132BB3016851E8051FA5
:10323000026821F0010142E80513002BDAD11AE0FF
:10324000016851E8051F026821F0400142E80513BA
:10325000DBB1016851E8051F026821F0400142E836
:10326000051393B1016851E8051F026821F0400180
:1032700042E805134BB1016851E8051F026821F0CF
:10328000400142E80513002BDAD1202180F84210DA
:10329000016B012925D100BF016851E8031F0268B5
:1032A00021F0100142E80313DBB1016851E8031F6C
:1032B000026821F0100142E8031393B1016851E85C
:1032C000031F026821F0100142E803134BB10168AB
:1032D00051E8031F026821F0100142E80313002B9C
:1032E000DAD100214163016B012918BFFFF75EBCF1
:1032F000818DFEF783BF0000406A01214163016BAD
:10330000012918BFFFF772BC818D4908FEF776BF0F
:1033100081B090F84210222921D183680246B3F58A
:10332000805F09D152F8281F52F8183C002B63D057
:1033300003685B680AE000BF52F8281F13B90369ED
:10334000002BF5D003685B6803F07F030B701168F6
:1033500001311160C18D01390A04C18502D001B06B
:10336000704700BF0168CA6822F02002CA60CA68BC
:1033700022F48072CA604A6922F001024A61202167
:1033800080F8421000214163026B012A3CD10163A5
:10339000016851E8031F026821F0100142E803139D
:1033A000DBB1016851E8031F026821F0100142E817
:1033B000031393B1016851E8031F026821F0100163
:1033C00042E803134BB1016851E8031F026821F082
:1033D000100142E80313002BDAD101680A68D20613
:1033E00006D5002200920A6800924968009100996F
:1033F000818D01B0FEF702BF026852686FF35F2251
:1034000021F8022B8162A5E701B0FFF7CFBB0000D6
:1034100040F22440C2F20000FEF7F4BE40F2E42085
:10342000C2F20000FDF7C8BAFEE7000090B0FEF758
:1034300039F800240120CDE90B44CDE90944069078
:103440000A904FF4E0104FF4803102250F9006A847
:10345000CDE90714CDE90D51FEF7D2F920B1EFF314
:10346000108072B6FEE700BF0F20CDE901054FF4D2
:103470008060CDE9040401A802210394FEF7BAF8A4
:1034800020B1EFF3108072B6FEE700BFFFF7F8FB44
:10349000FFF7D4FBFFF7B0FBFFF714FCFFF74AFC84
:1034A000FFF782FCFFF79EFCFFF7BCFC40F2E42034
:1034B000C2F20000FCF7E4FEFCF742FF40F2B44029
:1034C00040F29401C2F20000C2F200011222FFF7A2
:1034D000B7FA40F29430C2F20000FEF7A3FC00BF3E
:1034E000FEE7000021F0004201F00043A2F160522B
:1034F000B2F5801F28BFD2F17F6C0BD95FEA001CA8
:1035000043EAC20242EB507018BF704728BF20F058
:1035100001007047B2F5801FBCBF184670474FEAE4
:10352000410C1CF5001F02D2084600F088BE70B5A1
:1035300000F0E8FA00000089FFF7F6BF4FF0004006
:10354000A0F580007047000010B591EA030F48BF56
:1035500083F0004300F13283841A71EB030C05D22F
:10356000121943EB0C03001B61EB0C014FEA1154E1
:10357000A4EB135CDFF81CE11EEA430F18BF9EEAC0
:10358000445F00F0748021EA045123EA0E0343F4FF
:103590008013DCF1200E32D322FA0CFE10EB0E0069
:1035A00023FA0CFE41EB0E01CCF1200E03FA0EFEC5
:1035B00010EB0E00CCF1200E51F10001B1F5801F8F
:1035C00032D201EB045112FA0EF2BDE8104058BF9E
:1035D0007047401C38BF5FEA420218BF704700289E
:1035E00014BF20F0010041F100014FEA410313F53F
:1035F000001F38BF7047A1F1C04100F0D1BA012AC5
:1036000043EB0302ACF1200CDCF11F0E32BF4FF094
:10361000000E23FA0CF310EB030041EB0451B4EB62
:10362000115FD0D0A1EB045101F58011490801EBE5
:1036300004515FEA30000ED350F1000038BF12FA97
:103640000EFE08D1BDE81040C9E7401C38BF5FEA54
:103650004202CAD1C3E7BDE810404FEA410313F567
:10366000001F38BF7047A1F1C04100F099BA9EEA2F
:10367000445F08D011EA5E0FBDE8104004BF01F0BE
:10368000004100207047BDE8104070B500F03AFAE4
:1036900064FBBE3E0000E0FF2DE9C04130B4DFF81E
:1036A000A8C23CEA111418BF3CEA131400F0F080E1
:1036B0001CEA111481EA030544EAD57418BF1CEA18
:1036C000131500F0CB80A4EB050404F17F7404F51E
:1036D00000344FF0004545EAC12145EAC32341EAE1
:1036E000505143EA52534FEAC0204FEAC222994256
:1036F00008BF904200F0A0804FEA13650FF2481611
:10370000765D4FEA134506FB05F7C7F1807706FBA8
:1037100007F74FEAD737A7FB03687642A7FB06CE29
:10372000C8F5803838BFA8F1010807FB08E6A6FBFA
:10373000028C4FF0000EE6FB03CED8F100086FEAD2
:103740000C0C5CF1000C6FEA0E0E4EF1004EA6FB65
:103750000C584FF00007E6FB0E87A1FB08C6A0FB44
:1037600007CE16EB0E064FF0000545F10005E1FB14
:10377000076515F1E04E7EBFA4F580345FEA46068A
:103780006D4116F1800745F100054FEA172747EA1A
:1037900005674FEA15254FEA0666A6F1DE46B6F143
:1037A000805F20D9384605EBC47124F0010C01EB91
:1037B0000C11BCF1FE6F02D8F0BCBDE800812442C0
:1037C0005CBF01F5801E9EEAC47F02D4F0BCBDE858
:1037D0000081244200F13980A1F1C041F0BCBDE874
:1037E000004100F0DDB94FEAD02040EA41504FEAF5
:1037F000D1214FEAD22242EA43524FEAD323A7FB18
:10380000028607FB036605FB02661EEA0E0F58BF21
:10381000A6EB0056B6EB00564FEA520E4EEAC37EB8
:1038200018EB0E0E56EB530EBCD518EB02085E419A
:103830007F1C55F10005B5E74FF480154FF00007E8
:103840004FF000064FF00008ACE701F1C04101F075
:1038500000414FF00000F0BCBDE800810CEA1315F8
:1038600011EA0C1F00D00CE013EA0C1F00F02580B9
:103870004FF0000081EA030101F00041F0BCBDE817
:103880000081F0BCBDE8004181EA030100F088B985
:10389000F0BCBDE8004170B500F034F9097EFC3E93
:1038A00000F007B84FF0000081EA030101F0004189
:1038B000704781EA030100F073B9F0BCBDE8004134
:1038C00022494FF000007047FFFDFBF9F7F5F4F2D5
:1038D000F0EEEDEBE9E8E6E4E3E1E0DEDDDBDAD8AB
:1038E000D7D5D4D3D1D0CFCDCCCBCAC8C7C6C5C409
:1038F000C2C1C0BFBEBDBCBBBAB9B8B7B6B5B4B320
:10390000B2B1B0AFAEADACABAAA9A8A8A7A6A5A40A
:10391000A3A3A2A1A09F9F9E9D9C9C9B9A999998CE
:103920009797969595949393929191908F8F8E8E71
:103930008D8C8C8B8B8A89898888878786858584FE
:1039400084838382828181800000FF070000F87FEA
:103950004FEA41034FEA5353A3F58063D3F11E03AB
:10396000C8BFD3F1210C0CDD4FF0004242EAC12266
:1039700042EA505232FA03FC8CEAE17CACEBE17093
:103980007047102BC4BF0020704703F5787CBCF152
:10399000FF3F04D06FF0004282EA2100704770B50B
:1039A00000F0B0F84992248000207047F2E7000050
:1039B00070B5DFF848C11CEA111E1EBF1CEA1315C2
:1039C0009EEA0C0F95EA0C0F00F06F8081EA030469
:1039D0004EEAD47EAE4421EA4C1123EA4C1341F462
:1039E000801143F48013AEF17F7EA1FB024CA0FB5B
:1039F0000365361955EB0C05A1FB034C4CF1000394
:103A0000A0FB021C16EB0C06654153F100030942B2
:103A100018BF46F0010613F4007F0BD14FEA0331C3
:103A20004FEA053041EA155140EA165034036FF071
:103A300003020AE04FEAC3214FEAC52041EA55518B
:103A400040EA5650F4026FF0020202EB2E4201EB04
:103A5000025585EACE710AD05FEA440C18BF24F003
:103A6000004450F1000041F1000120EAD47040F21E
:103A7000FE7C624500D270BDA84214BF4FF0804466
:103A80004FF04044002E08BF0024BEF1806FA8BF55
:103A9000A1F1C041BDE8704080F2828001F1C041D7
:103AA00001F000414FF0000070470CEA13159EEA48
:103AB0000C0F18BF95EA0C0F06D081EA030E4FF0E9
:103AC00000000EF0004170BD00F01CF88900013EBE
:103AD00000F007B800F009B84FEA430C5FEA5C5CFD
:103AE00008D081EA030100F05BB84FEA410C5FEABD
:103AF0005C5CF6D102494FF0000070470000FF0700
:103B00000000F87F0EF1020E2EF0030E5EF8046B3B
:103B1000364205D4012A43EB030515F5001F12D8E0
:103B2000012841EB010C1CF5001F0CD80ED14FEA07
:103B3000D17C0CEB4C0C0CF1020C15F5001F08BFEE
:103B40004CEBD37C04E04FF0080C01E04FEAD37C4F
:103B50000CEB4C0526FA05F606F00706B6F1040C48
:103B600006D20EEB860CBDE870404CF0010C6047AD
:103B7000DFE80CF0090B02024FF00041A1F5002133
:103B80004FF0000070BD19461046012851EB0104AA
:103B900018BFD4F5001484BF002001F0004170BDAF
:103BA0000808A0F500114FEA3101704710B591EAFD
:103BB000030F48BF83F000433FF5CEAC841A71EB8E
:103BC000030C07D28CF0004C121943EB0C03001BC2
:103BD00061EB0C014FEA1154A4EB135CDFF8A4E194
:103BE0001EEA430F18BF9EEA445F00F0B48021EA4A
:103BF000045123EA6E035242C3EB6E0338BF5B1ECF
:103C0000DCF1200E25D322FA0CFE10EB0E0043FA55
:103C10000CFE41EB0E01CCF1200E03FA0EFE10EB70
:103C20000E00CCF1200E51F1000129D401EB04511A
:103C300012FA0EF2BDE8104058BF7047401C1CBF7E
:103C4000B2F1004F704700280CBF491C20F0010062
:103C5000704712EB020E43EB030218BF4FF0010E48
:103C60004EEA4202ACF1200CDCF11E0E56D943FAAA
:103C70000CFE10EB0E00CCF11E0E51F1FF31D5D52C
:103C80000EF1010E12FA0EFE404141EB010101EB73
:103C9000445C5FEA5C5C10D901EB045110EBDE7010
:103CA00038BFBEF1004FBDE8104018BF7047002874
:103CB0000CBF491C20F00100704734D24FEAD42CCD
:103CC00024F4006411F500111BD0B1FA81F20B3A13
:103CD000A41AA41ED2F12003914030FA03F3194331
:103CE000904001EBCC7101EB0451002CBDE8104079
:103CF000A8BF704701F1C04101F000414FF0000042
:103D00007047B0FA80F310FA03F102D1BDE8104019
:103D10007047E41A173C4805C90AE2E701EB045171
:103D2000BDE81040704749104FEA300001EB0451E4
:103D3000BDE8104002E04FF0000170474A0008BFA4
:103D40000042F8D0B2F5001F28BF704701F00041D3
:103D50004FF0000070479EEA445F07D011EA5E0F03
:103D6000BDE8104004BF002100207047BDE81040AE
:103D700070B5FFF7C7FE00BF40DFF63E104683F088
:103D8000004170470000E0FF43004FEAD30C4FEAC8
:103D90003C0C43401FBF40070CF1605113F0FE4F35
:103DA00070471CF0006F03D10CF0004100207047F9
:103DB0000CF0004343EA507040EACC0010B500F02C
:103DC000F8F900BF000000924FEA0001FFF7E8BEDB
:103DD0004FF00041A1F500214FF0000070470000B6
:103DE00090EA010F48BF81F0004100F13482421A8D
:103DF0003CBF801A89184FEAD052A2EBD1534FF042
:103E00007F4C1CEA410F18BF9CEA026F00F03B8018
:103E10004FF0004C4CEA00204CEA012121FA03FC4F
:103E200010EB0C0C1ED202F1FF325FEA1C2040EBBB
:103E3000C25038BF70471CF07F0F4FEA400C18BFCC
:103E4000BCF17F4F38BF7047C3F12003994008BFD2
:103E500020F00100BCF17F4F38BF7047A0F1C04097
:103E600000F0EDB94FEA3C00000A40EBC25028BF19
:103E70001CF0FF0F4FEA400CE6D018BFBCF17F4F9B
:103E800038BF7047EAE79CEA026F05D010EA5C0F82
:103E900008BF00F00040704710B500F08AF900BF7D
:103EA00064FBBE3E10B500F033F80CBF01200020CB
:103EB00010BD10B500F02CF814BF0120002010BD7B
:103EC00010B500F08DF88CBF0120002010BD10B59A
:103ED00000F086F82CBF0120002010BD10B500F0C6
:103EE000B3F894BF0120002010BD10B500F0ACF86D
:103EF00034BF0120002010BD401058BFC0F1404029
:103F0000491058BFC1F140418142EFF30080704732
:103F100050EA010C00F113801CF5000F58BFBCF5EE
:103F2000000F01D48842704707D710F5000F58BF23
:103F300011F5000F15D488427047894270471CF56F
:103F4000000F04D5BCF5000FF7D5814270474FF044
:103F5000807C1CEB400F38BF1CEB410F01D281422B
:103F6000704710B500F025F9922449004FF0005039
:103F70004FF08051FFF7C0BF41000B0ED3F19E02FE
:103F800008D950F400034FEA032323FA02F048BF94
:103F90004042704710B500F00CF900BF49922480F0
:103FA000002070476FF0004282EA20007047000056
:103FB00010F0004148BF4042B0FA80F310FA03F21B
:103FC000C3F19D030BD051EAC35101EB12205306FC
:103FD00038BF704700F1010008BF20F001007047B2
:103FE00050EA010C00F113801CF5000F58BFBCF51E
:103FF000000F01D48842704707D710F5000F58BF53
:1040000011F5000F15D488427047894270471CF59E
:10401000000F04D5BCF5000FF7D5814270474FF073
:10402000807C1CEB400F38BF1CEB410F01D281425A
:10403000704710B500F0BDF8922449004FF0805051
:104040004FF00051FFF758BF50EA010C00F1138008
:104050001CF5000F58BFBCF5000F01D48842704713
:1040600007D710F5000F58BF11F5000F15D488427F
:104070007047894270471CF5000F04D5BCF5000F4E
:10408000F7D5814270474FF0807C1CEB400F38BF62
:104090001CEB410F01D28142704710B500F089F846
:1040A000922449004FF000504FF08051FFF724BF99
:1040B0004FF47F0C1CEAD0121EBF1CEAD11392EA07
:1040C0000C0F93EA0C0F00F0478090EA010F48BFF5
:1040D00042F480724FF0004C4CEA00204CEA01217F
:1040E00002EB0302A0FB0113A2F50002002918BF96
:1040F00043F001035B0028BF4FEA330342EB224247
:104100005FEA132C4CEBC2502EBFBCEB436FB2F5F1
:104110007C0F70474FEA036CBCF1004F08BF20F0E2
:104120000100B2F57C0F38BF70470BD582F0FF025B
:1041300012F5803FC8BF704700F1C040D8BF00F003
:104140000040704700F5000C5FEA4C0C48BF704718
:10415000B0F1C04000F073B80CEAD11390EA010F3F
:1041600048BF42F48072624538BF634504D280EA9A
:10417000010000F00040704710B500F01AF800BFD1
:104180008900013E00F007B800F009B85FEA410C71
:104190005FEA1C6C08D080EA010000F050B85FEACA
:1041A000400C5FEA1C6CF6D14FF00040A0F5800097
:1041B00070470EF1020E2EF0030E5EF8044B2442FF
:1041C00004D44FEA4102B2F17F4F11D84FEA4003C5
:1041D000B3F17F4F0CD80ED14FEAD07C0CEB4C0CD6
:1041E0000CF1020CB2F17F4F08BF4CEBD17C04E024
:1041F0004FF0080C01E04FEAD17C0CEB4C0324FAA1
:1042000003F404F00704B4F1040C06D20EEB840CA2
:10421000BDE810404CF0010C6047DFE80CF00708E7
:1042200002024FF00040A0F5800010BD0846420099
:1042300018BFD2F1807288BF00F0004010BDFF218E
:1042400041EAD050C005704790EA010F48BF81F0A5
:1042500000413FF5CCAD421A04D882F00042A0EBF9
:10426000020011444FEAD052A2EBD1534FF07F4CE1
:104270001CEA410F18BF9CEA026F4AD04FF0004C75
:104280004CEA00204CEA012121FA03FCB0EB0C0CB3
:104290000FD412F0FE0F36D05FEA4C001DD500128D
:1042A00040EBC25038BF70471CF03F0F18BF70473B
:1042B0000BE05FEA1C20A2F1010240EBC25038BFC4
:1042C00070471CF07F0F18BF7047C3F1200399405F
:1042D00014BF401E20F0010070474FEA12238008EF
:1042E00008BF7047B0FA80FCA2EB0C02CCF1280C9E
:1042F00060FA0CF093EA122F04BF00EBC250704733
:104300004FEAC3707047130A5FEADC1008BF7047BA
:10431000F6E79CEA026F04D010EA5C0F08BF0020A9
:10432000704710B5FFF745FF40DFF63E81F00040D3
:1043300070470000B400002040010020CC010020A4
:1043400058020020000000000000000001020304E9
:10435000060708090000000001020304010202032D
:104360000405060708090A0B0C0D0E0F10100000BB
:1043700090430008000000201000000050010008D9
:10438000A043000810000020080B00007001000886
:1043900001000000100000006400000000127A001C
:04000005080000ED02
:00000001FF
